{
  "contractName": "Crowdfunding",
  "abi": [
    {
      "inputs": [],
      "stateMutability": "nonpayable",
      "type": "constructor"
    },
    {
      "inputs": [
        {
          "internalType": "address",
          "name": "",
          "type": "address"
        }
      ],
      "name": "contributions",
      "outputs": [
        {
          "internalType": "uint256",
          "name": "",
          "type": "uint256"
        }
      ],
      "stateMutability": "view",
      "type": "function",
      "constant": true
    },
    {
      "inputs": [],
      "name": "controller",
      "outputs": [
        {
          "internalType": "address payable",
          "name": "",
          "type": "address"
        }
      ],
      "stateMutability": "view",
      "type": "function",
      "constant": true
    },
    {
      "inputs": [],
      "name": "totalDeposits",
      "outputs": [
        {
          "internalType": "uint256",
          "name": "",
          "type": "uint256"
        }
      ],
      "stateMutability": "view",
      "type": "function",
      "constant": true
    },
    {
      "inputs": [],
      "name": "deposit",
      "outputs": [],
      "stateMutability": "payable",
      "type": "function",
      "payable": true
    },
    {
      "inputs": [],
      "name": "withdraw",
      "outputs": [],
      "stateMutability": "nonpayable",
      "type": "function"
    },
    {
      "inputs": [],
      "name": "getTotalDeposits",
      "outputs": [
        {
          "internalType": "uint256",
          "name": "",
          "type": "uint256"
        }
      ],
      "stateMutability": "view",
      "type": "function",
      "constant": true
    },
    {
      "inputs": [],
      "name": "getController",
      "outputs": [
        {
          "internalType": "address",
          "name": "",
          "type": "address"
        }
      ],
      "stateMutability": "view",
      "type": "function",
      "constant": true
    },
    {
      "inputs": [
        {
          "internalType": "address",
          "name": "contributor",
          "type": "address"
        }
      ],
      "name": "getContribution",
      "outputs": [
        {
          "internalType": "uint256",
          "name": "",
          "type": "uint256"
        }
      ],
      "stateMutability": "view",
      "type": "function",
      "constant": true
    }
  ],
  "bytecode": "0x608060405234801561001057600080fd5b50600080546001600160a01b03191633179055610304806100326000396000f3fe60806040526004361061007b5760003560e01c806342e94c901161004e57806342e94c90146101235780637d88209714610150578063d0e30db014610166578063f77c47911461016e57600080fd5b8063168a48221461008057806321eff7fc146100a45780633018205f146100da5780633ccfd60b1461010c575b600080fd5b34801561008c57600080fd5b506001545b6040519081526020015b60405180910390f35b3480156100b057600080fd5b506100916100bf366004610277565b6001600160a01b031660009081526002602052604090205490565b3480156100e657600080fd5b506000546001600160a01b03165b6040516001600160a01b03909116815260200161009b565b34801561011857600080fd5b5061012161018e565b005b34801561012f57600080fd5b5061009161013e366004610277565b60026020526000908152604090205481565b34801561015c57600080fd5b5061009160015481565b61012161023a565b34801561017a57600080fd5b506000546100f4906001600160a01b031681565b6000546001600160a01b031633146101fb5760405162461bcd60e51b815260206004820152602660248201527f4f6e6c792074686520636f6e74726f6c6c65722063616e2077697468647261776044820152652066756e647360d01b606482015260840160405180910390fd5b6000805460405147926001600160a01b039092169183156108fc02918491818181858888f19350505050158015610236573d6000803e3d6000fd5b5050565b346001600082825461024c91906102a7565b909155505033600090815260026020526040812080543492906102709084906102a7565b9091555050565b60006020828403121561028957600080fd5b81356001600160a01b03811681146102a057600080fd5b9392505050565b808201808211156102c857634e487b7160e01b600052601160045260246000fd5b9291505056fea26469706673582212204f8308c49eaae7cef4d5d59447f179e2904f3cbd02688f32236c83c1a2aa893964736f6c63430008130033",
  "immutableReferences": {},
  "source": "// SPDX-License-Identifier: Unlicensed\r\npragma solidity ^0.8.0;\r\n\r\ncontract Crowdfunding {\r\n    address payable public controller;\r\n    uint256 public totalDeposits;\r\n    mapping(address => uint256) public contributions;\r\n    \r\n    constructor() {\r\n        controller = payable(msg.sender);\r\n    }\r\n    \r\n    function deposit() public payable {\r\n        totalDeposits += msg.value;\r\n        contributions[msg.sender] += msg.value;\r\n    }\r\n    \r\n    function withdraw() public {\r\n        require(msg.sender == controller, \"Only the controller can withdraw funds\");\r\n        uint256 balance = address(this).balance;\r\n        controller.transfer(balance);\r\n    }\r\n    \r\n    function getTotalDeposits() public view returns (uint256) {\r\n        return totalDeposits;\r\n    }\r\n    \r\n    function getController() public view returns (address) {\r\n        return controller;\r\n    }\r\n    \r\n    function getContribution(address contributor) public view returns (uint256) {\r\n        return contributions[contributor];\r\n    }\r\n}",
  "sourcePath": "C:\\Assignments\\y4-project-patrickcarmody\\Source\\client\\src\\truffle\\contracts\\Crowdfunding.sol",
  "compiler": {
    "name": "solc",
    "version": "0.8.19+commit.7dd6d404.Emscripten.clang"
  },
  "schemaVersion": "3.4.11",
  "updatedAt": "2023-05-01T09:41:03.980Z",
  "networkType": "ethereum",
  "devdoc": {
    "kind": "dev",
    "methods": {},
    "version": 1
  },
  "userdoc": {
    "kind": "user",
    "methods": {},
    "version": 1
  }
}